:100000000C944E000C946D000C946D000C946D00DB
:100010000C946D000C946D000C946D000C946D00AC
:100020000C946D000C946D000C946D000C946D009C
:100030000C946D000C94EB000C946D000C946D000E
:100040000C946D000C946D000C946D000C946D007C
:100050000C946D000C946D000C946D000C946D006C
:100060000C946D000C946D000C946D000C946D005C
:100070000C946D000C946D000C946D000C946D004C
:100080000C946D000C946D000C946D00F9017E02CF
:10009000FE01320237023C025202680211241FBEE6
:1000A000CFEFD0E4DEBFCDBF11E0A0E0B1E0EAEEDB
:1000B000F9E000E00BBF02C007900D92A431B10738
:1000C000D9F721E0A4E1B1E001C01D92A634B20746
:1000D000E1F70E9459030C94F3040C940000CF93B1
:1000E000DF9300D000D0CDB7DEB769837A838B83EE
:1000F0009C8389819A81AB81BC818093000190931C
:100100000101A0930201B09303018091000190913D
:100110000101A0910201B091030180931501909318
:100120001601A0931701B093180100000F900F90D3
:100130000F900F90DF91CF910895CF93DF93CDB7BC
:10014000DEB781E890E02BE0FC01208388E890E0B6
:100150002DE730E0FC01318320838FE690E022E040
:10016000FC01208384E890E0FC01118210828091E0
:10017000000190910101A0910201B09103018093CF
:10018000150190931601A0931701B09318018FE504
:1001900090E02FE530E0F90120812068FC01208308
:1001A0000000DF91CF910895CF93DF93CDB7DEB7F5
:1001B00081E890E0FC0110820000DF91CF9108956A
:1001C000CF93DF93CDB7DEB781E0809314010000B9
:1001D000DF91CF9108951F920F9200905F000F92D0
:1001E000112400905B000F922F933F934F935F93E6
:1001F0006F937F938F939F93AF93BF93EF93FF93EF
:10020000CF93DF93CDB7DEB78091150190911601A2
:10021000A0911701B09118010197A109B10980932C
:10022000150190931601A0931701B09318018091C6
:10023000150190911601A0911701B0911801892B19
:100240008A2B8B2B91F40E94E00080910001909109
:100250000101A0910201B0910301809315019093D7
:100260001601A0931701B09318010000DF91CF9100
:10027000FF91EF91BF91AF919F918F917F916F917E
:100280005F914F913F912F910F9000925B000F90E3
:1002900000925F000F901F901895CF93DF9300D0CE
:1002A0001F92CDB7DEB789837B836A8389818A30C9
:1002B00031F48A819B81BC018DE00E944D0180EC6C
:1002C00090E0FC018081882F90E080729927892B33
:1002D000B1F386EC90E02981FC01208380E090E07E
:1002E0000F900F900F90DF91CF910895CF93DF93F0
:1002F00000D000D0CDB7DEB78B836C831A82198211
:1003000033C08C81882331F488E290E028E0FC013E
:10031000208308C08C81813029F488E290E020E2BB
:10032000FC01208388E290E028E230E0F90120819E
:10033000422F2B81222F30E0098002C0359527956E
:100340000A94E2F72170242BFC01208388E290E0DC
:1003500028E230E0F90120812260FC0120838981BC
:100360009A8101969A83898389819A8108974CF2B0
:100370008C81882351F488E290E028E230E0F90192
:1003800020812460FC0120830CC08C81813049F4E1
:1003900088E290E028E230E0F90120812061FC0150
:1003A000208388E290E0FC01108200000F900F9003
:1003B0000F900F90DF91CF910895CF93DF9300D0EE
:1003C000CDB7DEB79A83898389819A81092E000C83
:1003D000AA0BBB0B40E050E027E030E0841B950BFC
:1003E0002817390708F48AC08A5B9F4FFC010C94D8
:1003F000EA0482E090E09A83898384C080E290E0FE
:10040000FC018081882F90E08095909583709927DA
:10041000039729F487E090E09A83898372C080E291
:1004200090E0FC018081882F90E08095909583700A
:100430009927019729F483E090E09A83898361C02A
:1004400080E290E0FC018081882F90E0809590957B
:1004500083709927029709F054C084E090E09A8352
:1004600089834FC085E090E09A8389834BC086E002
:1004700090E09A83898346C080E290E0FC0180810D
:10048000882F90E08095909583709927039729F4A1
:1004900087E090E09A83898335C082E090E09A8378
:1004A000898330C080E290E0FC018081882F90E059
:1004B0008095909583709927039729F487E090E0C1
:1004C0009A8389831FC082E090E09A8389831AC04F
:1004D00080E290E0FC018081882F90E080959095EB
:1004E00083709927039729F487E090E09A838983A2
:1004F00009C082E090E09A83898304C01A8219823D
:1005000001C0000089819A8183309105A9F084306F
:1005100091053CF4009709F446C0029709F445C0E0
:100520004DC08530910509F442C085309105D4F065
:10053000069709F43EC042C0809112018F3F61F4DA
:10054000809119018F3FB9F1109212018091190128
:100550008F5F809319012FC0809112018F5F80936C
:10056000120129C080911901882399F0809112010C
:10057000882349F4809119018150809319018FEFEC
:10058000809312011AC08091120181508093120150
:1005900014C080911201882381F080911201815052
:1005A000809312010AC0000009C0000007C00000CB
:1005B00005C0000003C0000001C0000089819A81CD
:1005C0000F900F90DF91CF910895CF93DF9300D0DC
:1005D000CDB7DEB79A83898389819A81892B19F4F3
:1005E0001A82198203C01A821982000089819A81B5
:1005F000892B59F48091120160E00E94760180916C
:10060000190161E00E947601000089819A810F90B2
:100610000F90DF91CF910895CF93DF93CDB7DEB7E1
:100620002C970FB6F894DEBF0FBECDBF6D837E83CF
:100630008F83988729873A874B875C878D819E8136
:10064000AF81B88529853A854B855C85BC01CD0194
:100650000E94C804DC01CB0189839A83AB83BC83ED
:1006600089819A81AB81BC81892B8A2B8B2B29F4C0
:1006700089859A85AB85BC8511C089859A85AB85AE
:10068000BC858D839E83AF83B88789819A81AB8136
:10069000BC8189879A87AB87BC87D0CFBC01CD014D
:1006A0002C960FB6F894DEBF0FBECDBFDF91CF9171
:1006B00008950F931F93CF93DF93CDB7DEB72D9798
:1006C0000FB6F894DEBF0FBECDBF81E290E0FC0113
:1006D000108282E290E02FEFFC01208387E290E01D
:1006E0002FEFFC01208388E290E0FC0110828AE178
:1006F00091E09B878A8785E291E09D878C8782E0E5
:1007000090E098878F838FEF89878A859B852985DD
:10071000FC0120832A853B8584E690E0A0E0B0E0E0
:10072000F90181839283A383B4832A853B858A85DB
:100730009B85FC0181819281A381B481F90185832C
:100740009683A783B0878A859B8525EE32E0FC01DE
:10075000328721878C859D852985FC0120832C8506
:100760003D8582E390E0A0E0B0E0F90181839283CF
:10077000A383B4832C853D858C859D85FC01818177
:100780009281A381B481F90185839683A783B08781
:100790008C859D852DED31E0FC01328721878A858E
:1007A0009B85FC0181819281A381B4818B839C8391
:1007B000AD83BE8381E090E09A83898325C08981DF
:1007C0009A81880F991F9E012F5F3F4F820F931FC1
:1007D0000996FC0180819181FC0121813281438154
:1007E00054818B819C81AD81BE81BC01CD010E9471
:1007F0000C03DC01CB018B839C83AD83BE83898199
:100800009A8101969A83898329813A818F8198857B
:1008100028173907A0F28B819C81AD81BE81BC0174
:10082000CD010E946F000E949D001A821982A0C013
:1008300089819A81880F991F9E012F5F3F4F820FF8
:10084000931F0996FC0180819181FC0125813681ED
:100850004781508589819A81880F991FBE016F5FFA
:100860007F4F860F971F0996FC0180819181FC01C3
:1008700081819281A381B481281739074A075B07D8
:1008800009F045C089819A81880F991F9E012F5FC9
:100890003F4F820F931F0996FC01008111818981CE
:1008A0009A81880F991F9E012F5F3F4F820F931FE0
:1008B0000996FC0180819181FC0121853285898125
:1008C0009A81880F991FAE014F5F5F4F840F951F6C
:1008D0000996FC0180819181FC018081082E000C29
:1008E000990BF9010995F801808389819A81880F14
:1008F000991F9E012F5F3F4F820F931F0996FC01A6
:1009000080819181FC01158216821782108689816F
:100910009A81880F991F9E012F5F3F4F820F931F6F
:100920000996FC016081718189819A81880F991FE4
:100930009E012F5F3F4F820F931F0996FC0180811C
:100940009181FC0125813681478150858B819C8175
:10095000AD81BE81820F931FA41FB51FFB0185834C
:100960009683A783B08789819A8101969A83898328
:1009700029813A818F8198852817390708F458CF43
:100980000000809114018823E1F3109214014DCFEF
:10099000A1E21A2EAA1BBB1BFD010DC0AA1FBB1F83
:1009A000EE1FFF1FA217B307E407F50720F0A21BF5
:1009B000B30BE40BF50B661F771F881F991F1A9462
:1009C00069F760957095809590959B01AC01BD018C
:1009D000CF010895EE0FFF1F0024001C0BBE0790EF
:0A09E000F691E02D0994F894FFCF82
:1009EA000100000000000002000000004D010000AC
:0409FA000000FF00FA
:00000001FF
